{
  "contractName": "Cruds",
  "abi": [
    {
      "inputs": [
        {
          "internalType": "string",
          "name": "_cid",
          "type": "string"
        }
      ],
      "name": "addDoctor",
      "outputs": [],
      "stateMutability": "nonpayable",
      "type": "function"
    },
    {
      "inputs": [
        {
          "internalType": "string",
          "name": "_cid",
          "type": "string"
        }
      ],
      "name": "addPatient",
      "outputs": [],
      "stateMutability": "nonpayable",
      "type": "function"
    },
    {
      "inputs": [
        {
          "internalType": "address",
          "name": "doctorAddress",
          "type": "address"
        }
      ],
      "name": "getDoctor",
      "outputs": [
        {
          "internalType": "string",
          "name": "",
          "type": "string"
        }
      ],
      "stateMutability": "view",
      "type": "function",
      "constant": true
    },
    {
      "inputs": [
        {
          "internalType": "address",
          "name": "patientAddress",
          "type": "address"
        }
      ],
      "name": "getPatient",
      "outputs": [
        {
          "internalType": "string",
          "name": "",
          "type": "string"
        }
      ],
      "stateMutability": "view",
      "type": "function",
      "constant": true
    },
    {
      "inputs": [],
      "name": "getPatients",
      "outputs": [
        {
          "internalType": "address[]",
          "name": "",
          "type": "address[]"
        }
      ],
      "stateMutability": "view",
      "type": "function",
      "constant": true
    },
    {
      "inputs": [],
      "name": "getDoctors",
      "outputs": [
        {
          "internalType": "address[]",
          "name": "",
          "type": "address[]"
        }
      ],
      "stateMutability": "view",
      "type": "function",
      "constant": true
    }
  ],
  "bytecode": "0x608060405234801561001057600080fd5b50610e1c806100206000396000f3fe608060405234801561001057600080fd5b50600436106100625760003560e01c80630be617001461006757806312ad1c37146100835780632f04e064146100a1578063b13d5d94146100d1578063b5368e20146100ef578063fb87cf941461011f575b600080fd5b610081600480360381019061007c9190610803565b61013b565b005b61008b610294565b604051610098919061093c565b60405180910390f35b6100bb60048036038101906100b6919061098a565b610322565b6040516100c89190610a36565b60405180910390f35b6100d96103f3565b6040516100e6919061093c565b60405180910390f35b6101096004803603810190610104919061098a565b610481565b6040516101169190610a36565b60405180910390f35b61013960048036038101906101349190610803565b610551565b005b6000805b6003805490508110156101d9573373ffffffffffffffffffffffffffffffffffffffff166003828154811061017757610176610a58565b5b9060005260206000200160009054906101000a900473ffffffffffffffffffffffffffffffffffffffff1673ffffffffffffffffffffffffffffffffffffffff16036101c657600191506101d9565b80806101d190610ac0565b91505061013f565b5080610243576003339080600181540180825580915050600190039060005260206000200160009091909190916101000a81548173ffffffffffffffffffffffffffffffffffffffff021916908373ffffffffffffffffffffffffffffffffffffffff1602179055505b81600160003373ffffffffffffffffffffffffffffffffffffffff1673ffffffffffffffffffffffffffffffffffffffff168152602001908152602001600020908161028f9190610d14565b505050565b6060600280548060200260200160405190810160405280929190818152602001828054801561031857602002820191906000526020600020905b8160009054906101000a900473ffffffffffffffffffffffffffffffffffffffff1673ffffffffffffffffffffffffffffffffffffffff16815260200190600101908083116102ce575b5050505050905090565b6060600160008373ffffffffffffffffffffffffffffffffffffffff1673ffffffffffffffffffffffffffffffffffffffff168152602001908152602001600020805461036e90610b37565b80601f016020809104026020016040519081016040528092919081815260200182805461039a90610b37565b80156103e75780601f106103bc576101008083540402835291602001916103e7565b820191906000526020600020905b8154815290600101906020018083116103ca57829003601f168201915b50505050509050919050565b6060600380548060200260200160405190810160405280929190818152602001828054801561047757602002820191906000526020600020905b8160009054906101000a900473ffffffffffffffffffffffffffffffffffffffff1673ffffffffffffffffffffffffffffffffffffffff168152602001906001019080831161042d575b5050505050905090565b60606000808373ffffffffffffffffffffffffffffffffffffffff1673ffffffffffffffffffffffffffffffffffffffff16815260200190815260200160002080546104cc90610b37565b80601f01602080910402602001604051908101604052809291908181526020018280546104f890610b37565b80156105455780601f1061051a57610100808354040283529160200191610545565b820191906000526020600020905b81548152906001019060200180831161052857829003601f168201915b50505050509050919050565b6000805b6002805490508110156105ef573373ffffffffffffffffffffffffffffffffffffffff166002828154811061058d5761058c610a58565b5b9060005260206000200160009054906101000a900473ffffffffffffffffffffffffffffffffffffffff1673ffffffffffffffffffffffffffffffffffffffff16036105dc57600191506105ef565b80806105e790610ac0565b915050610555565b5080610659576002339080600181540180825580915050600190039060005260206000200160009091909190916101000a81548173ffffffffffffffffffffffffffffffffffffffff021916908373ffffffffffffffffffffffffffffffffffffffff1602179055505b816000803373ffffffffffffffffffffffffffffffffffffffff1673ffffffffffffffffffffffffffffffffffffffff16815260200190815260200160002090816106a49190610d14565b505050565b6000604051905090565b600080fd5b600080fd5b600080fd5b600080fd5b6000601f19601f8301169050919050565b7f4e487b7100000000000000000000000000000000000000000000000000000000600052604160045260246000fd5b610710826106c7565b810181811067ffffffffffffffff8211171561072f5761072e6106d8565b5b80604052505050565b60006107426106a9565b905061074e8282610707565b919050565b600067ffffffffffffffff82111561076e5761076d6106d8565b5b610777826106c7565b9050602081019050919050565b82818337600083830152505050565b60006107a66107a184610753565b610738565b9050828152602081018484840111156107c2576107c16106c2565b5b6107cd848285610784565b509392505050565b600082601f8301126107ea576107e96106bd565b5b81356107fa848260208601610793565b91505092915050565b600060208284031215610819576108186106b3565b5b600082013567ffffffffffffffff811115610837576108366106b8565b5b610843848285016107d5565b91505092915050565b600081519050919050565b600082825260208201905092915050565b6000819050602082019050919050565b600073ffffffffffffffffffffffffffffffffffffffff82169050919050565b60006108a382610878565b9050919050565b6108b381610898565b82525050565b60006108c583836108aa565b60208301905092915050565b6000602082019050919050565b60006108e98261084c565b6108f38185610857565b93506108fe83610868565b8060005b8381101561092f57815161091688826108b9565b9750610921836108d1565b925050600181019050610902565b5085935050505092915050565b6000602082019050818103600083015261095681846108de565b905092915050565b61096781610898565b811461097257600080fd5b50565b6000813590506109848161095e565b92915050565b6000602082840312156109a05761099f6106b3565b5b60006109ae84828501610975565b91505092915050565b600081519050919050565b600082825260208201905092915050565b60005b838110156109f15780820151818401526020810190506109d6565b60008484015250505050565b6000610a08826109b7565b610a1281856109c2565b9350610a228185602086016109d3565b610a2b816106c7565b840191505092915050565b60006020820190508181036000830152610a5081846109fd565b905092915050565b7f4e487b7100000000000000000000000000000000000000000000000000000000600052603260045260246000fd5b7f4e487b7100000000000000000000000000000000000000000000000000000000600052601160045260246000fd5b6000819050919050565b6000610acb82610ab6565b91507fffffffffffffffffffffffffffffffffffffffffffffffffffffffffffffffff8203610afd57610afc610a87565b5b600182019050919050565b7f4e487b7100000000000000000000000000000000000000000000000000000000600052602260045260246000fd5b60006002820490506001821680610b4f57607f821691505b602082108103610b6257610b61610b08565b5b50919050565b60008190508160005260206000209050919050565b60006020601f8301049050919050565b600082821b905092915050565b600060088302610bca7fffffffffffffffffffffffffffffffffffffffffffffffffffffffffffffffff82610b8d565b610bd48683610b8d565b95508019841693508086168417925050509392505050565b6000819050919050565b6000610c11610c0c610c0784610ab6565b610bec565b610ab6565b9050919050565b6000819050919050565b610c2b83610bf6565b610c3f610c3782610c18565b848454610b9a565b825550505050565b600090565b610c54610c47565b610c5f818484610c22565b505050565b5b81811015610c8357610c78600082610c4c565b600181019050610c65565b5050565b601f821115610cc857610c9981610b68565b610ca284610b7d565b81016020851015610cb1578190505b610cc5610cbd85610b7d565b830182610c64565b50505b505050565b600082821c905092915050565b6000610ceb60001984600802610ccd565b1980831691505092915050565b6000610d048383610cda565b9150826002028217905092915050565b610d1d826109b7565b67ffffffffffffffff811115610d3657610d356106d8565b5b610d408254610b37565b610d4b828285610c87565b600060209050601f831160018114610d7e5760008415610d6c578287015190505b610d768582610cf8565b865550610dde565b601f198416610d8c86610b68565b60005b82811015610db457848901518255600182019150602085019450602081019050610d8f565b86831015610dd15784890151610dcd601f891682610cda565b8355505b6001600288020188555050505b50505050505056fea26469706673582212208a9842bd7baaf172caf5b1596f96d4bf965776ddbaa8eef9c56353f96237f47f64736f6c63430008130033",
  "immutableReferences": {},
  "source": "// SPDX-License-Identifier: MIT\r\npragma solidity ^0.8.19;\r\n\r\ncontract Cruds {\r\n    mapping(address => string) private patientCIDs;\r\n    mapping(address => string) private doctorCIDs;\r\n    address[] private patients;\r\n    address[] private doctors;\r\n\r\n    function addDoctor(string memory _cid) public {\r\n        // Check if the doctor is not already in the array\r\n        bool exists = false;\r\n        for (uint i = 0; i < doctors.length; i++) {\r\n            if (doctors[i] == msg.sender) {\r\n                exists = true;\r\n                break;\r\n            }\r\n        }\r\n\r\n        // If the doctor doesn't exist, add to the array\r\n        if (!exists) {\r\n            doctors.push(msg.sender);\r\n        }\r\n        \r\n        // Update or set the doctor's CID\r\n        doctorCIDs[msg.sender] = _cid;\r\n    }\r\n\r\n    function addPatient(string memory _cid) public {\r\n        // Check if the patient is not already in the array\r\n        bool exists = false;\r\n        for (uint i = 0; i < patients.length; i++) {\r\n            if (patients[i] == msg.sender) {\r\n                exists = true;\r\n                break;\r\n            }\r\n        }\r\n\r\n        // If the patient doesn't exist, add to the array\r\n        if (!exists) {\r\n            patients.push(msg.sender);\r\n        }\r\n        \r\n        // Update or set the patient's CID\r\n        patientCIDs[msg.sender] = _cid;\r\n    }\r\n\r\n    function getDoctor(address doctorAddress) public view returns (string memory) {\r\n        return doctorCIDs[doctorAddress];\r\n    }\r\n\r\n    function getPatient(address patientAddress) public view returns (string memory) {\r\n        return patientCIDs[patientAddress];\r\n    }\r\n\r\n    function getPatients() public view returns (address[] memory) {\r\n        return patients;\r\n    }\r\n\r\n    function getDoctors() public view returns (address[] memory) {\r\n        return doctors;\r\n    }\r\n}",
  "sourcePath": "C:\\Users\\vshmk\\Downloads\\OneDrive\\MyFolder\\meds\\MediVault\\backend\\contracts\\Cruds.sol",
  "compiler": {
    "name": "solc",
    "version": "0.8.19+commit.7dd6d404.Emscripten.clang"
  },
  "schemaVersion": "3.4.16",
  "updatedAt": "2025-03-25T08:02:15.993Z",
  "networkType": "ethereum",
  "devdoc": {
    "kind": "dev",
    "methods": {},
    "version": 1
  },
  "userdoc": {
    "kind": "user",
    "methods": {},
    "version": 1
  }
}