{
  "contractName": "Cruds",
  "abi": [
    {
      "inputs": [
        {
          "internalType": "string",
          "name": "doc_cid",
          "type": "string"
        }
      ],
      "name": "addDoctor",
      "outputs": [],
      "stateMutability": "nonpayable",
      "type": "function"
    },
    {
      "inputs": [
        {
          "internalType": "address",
          "name": "doctorAddress",
          "type": "address"
        }
      ],
      "name": "getDoctor",
      "outputs": [
        {
          "internalType": "string",
          "name": "",
          "type": "string"
        }
      ],
      "stateMutability": "view",
      "type": "function",
      "constant": true
    },
    {
      "inputs": [
        {
          "internalType": "string",
          "name": "patient_cid",
          "type": "string"
        }
      ],
      "name": "addPatient",
      "outputs": [],
      "stateMutability": "nonpayable",
      "type": "function"
    },
    {
      "inputs": [
        {
          "internalType": "address",
          "name": "patientAddress",
          "type": "address"
        }
      ],
      "name": "getPatient",
      "outputs": [
        {
          "internalType": "string",
          "name": "",
          "type": "string"
        }
      ],
      "stateMutability": "view",
      "type": "function",
      "constant": true
    }
  ],
  "bytecode": "0x608060405234801561001057600080fd5b50610916806100206000396000f3fe608060405234801561001057600080fd5b506004361061004c5760003560e01c80630be61700146100515780632f04e0641461006d578063b5368e201461009d578063fb87cf94146100cd575b600080fd5b61006b60048036038101906100669190610483565b6100e9565b005b6100876004803603810190610082919061052a565b610139565b60405161009491906105d6565b60405180910390f35b6100b760048036038101906100b2919061052a565b61020a565b6040516100c491906105d6565b60405180910390f35b6100e760048036038101906100e29190610483565b6102da565b005b80600160003373ffffffffffffffffffffffffffffffffffffffff1673ffffffffffffffffffffffffffffffffffffffff1681526020019081526020016000209081610135919061080e565b5050565b6060600160008373ffffffffffffffffffffffffffffffffffffffff1673ffffffffffffffffffffffffffffffffffffffff168152602001908152602001600020805461018590610627565b80601f01602080910402602001604051908101604052809291908181526020018280546101b190610627565b80156101fe5780601f106101d3576101008083540402835291602001916101fe565b820191906000526020600020905b8154815290600101906020018083116101e157829003601f168201915b50505050509050919050565b60606000808373ffffffffffffffffffffffffffffffffffffffff1673ffffffffffffffffffffffffffffffffffffffff168152602001908152602001600020805461025590610627565b80601f016020809104026020016040519081016040528092919081815260200182805461028190610627565b80156102ce5780601f106102a3576101008083540402835291602001916102ce565b820191906000526020600020905b8154815290600101906020018083116102b157829003601f168201915b50505050509050919050565b806000803373ffffffffffffffffffffffffffffffffffffffff1673ffffffffffffffffffffffffffffffffffffffff1681526020019081526020016000209081610325919061080e565b5050565b6000604051905090565b600080fd5b600080fd5b600080fd5b600080fd5b6000601f19601f8301169050919050565b7f4e487b7100000000000000000000000000000000000000000000000000000000600052604160045260246000fd5b61039082610347565b810181811067ffffffffffffffff821117156103af576103ae610358565b5b80604052505050565b60006103c2610329565b90506103ce8282610387565b919050565b600067ffffffffffffffff8211156103ee576103ed610358565b5b6103f782610347565b9050602081019050919050565b82818337600083830152505050565b6000610426610421846103d3565b6103b8565b90508281526020810184848401111561044257610441610342565b5b61044d848285610404565b509392505050565b600082601f83011261046a5761046961033d565b5b813561047a848260208601610413565b91505092915050565b60006020828403121561049957610498610333565b5b600082013567ffffffffffffffff8111156104b7576104b6610338565b5b6104c384828501610455565b91505092915050565b600073ffffffffffffffffffffffffffffffffffffffff82169050919050565b60006104f7826104cc565b9050919050565b610507816104ec565b811461051257600080fd5b50565b600081359050610524816104fe565b92915050565b6000602082840312156105405761053f610333565b5b600061054e84828501610515565b91505092915050565b600081519050919050565b600082825260208201905092915050565b60005b83811015610591578082015181840152602081019050610576565b60008484015250505050565b60006105a882610557565b6105b28185610562565b93506105c2818560208601610573565b6105cb81610347565b840191505092915050565b600060208201905081810360008301526105f0818461059d565b905092915050565b7f4e487b7100000000000000000000000000000000000000000000000000000000600052602260045260246000fd5b6000600282049050600182168061063f57607f821691505b602082108103610652576106516105f8565b5b50919050565b60008190508160005260206000209050919050565b60006020601f8301049050919050565b600082821b905092915050565b6000600883026106ba7fffffffffffffffffffffffffffffffffffffffffffffffffffffffffffffffff8261067d565b6106c4868361067d565b95508019841693508086168417925050509392505050565b6000819050919050565b6000819050919050565b600061070b610706610701846106dc565b6106e6565b6106dc565b9050919050565b6000819050919050565b610725836106f0565b61073961073182610712565b84845461068a565b825550505050565b600090565b61074e610741565b61075981848461071c565b505050565b5b8181101561077d57610772600082610746565b60018101905061075f565b5050565b601f8211156107c25761079381610658565b61079c8461066d565b810160208510156107ab578190505b6107bf6107b78561066d565b83018261075e565b50505b505050565b600082821c905092915050565b60006107e5600019846008026107c7565b1980831691505092915050565b60006107fe83836107d4565b9150826002028217905092915050565b61081782610557565b67ffffffffffffffff8111156108305761082f610358565b5b61083a8254610627565b610845828285610781565b600060209050601f8311600181146108785760008415610866578287015190505b61087085826107f2565b8655506108d8565b601f19841661088686610658565b60005b828110156108ae57848901518255600182019150602085019450602081019050610889565b868310156108cb57848901516108c7601f8916826107d4565b8355505b6001600288020188555050505b50505050505056fea26469706673582212200c1ba892f68b918b055aa3e22053f0153ec5523101084c98262f669d1435650e64736f6c63430008130033",
  "immutableReferences": {},
  "source": "// SPDX-License-Identifier: MIT\r\npragma solidity ^0.8.19;\r\n\r\ncontract Cruds {\r\n    mapping(address => string) private patientCIDs;  // Maps a patient address to an array of CIDs\r\n    mapping(address => string) private doctorCIDs;     // Maps a doctor address to a single CID\r\n\r\n    function addDoctor(string memory doc_cid) public {\r\n        doctorCIDs[msg.sender] = doc_cid;  // Each doctor has a unique CID\r\n    }\r\n\r\n    function getDoctor(address doctorAddress) public view returns (string memory) {\r\n        return doctorCIDs[doctorAddress];  // Get doctor CID by address\r\n    }\r\n\r\n    function addPatient(string memory patient_cid) public {\r\n        patientCIDs[msg.sender] = patient_cid;  // Append new CID for the patient\r\n    }\r\n\r\n    function getPatient(address patientAddress) public view returns (string memory) {\r\n        return patientCIDs[patientAddress];  // Return all CIDs for a given patient\r\n    }\r\n}\r\n",
  "sourcePath": "C:\\Users\\vshmk\\Downloads\\OneDrive\\MyFolder\\meds\\MediVault\\backend\\contracts\\Cruds.sol",
  "compiler": {
    "name": "solc",
    "version": "0.8.19+commit.7dd6d404.Emscripten.clang"
  },
  "schemaVersion": "3.4.16",
  "updatedAt": "2025-03-23T16:53:55.785Z",
  "networkType": "ethereum",
  "devdoc": {
    "kind": "dev",
    "methods": {},
    "version": 1
  },
  "userdoc": {
    "kind": "user",
    "methods": {},
    "version": 1
  }
}